:020000040800F2
:100000005006002045010008652D000889270008DA
:10001000812C0008DD0100081D35000800000000EB
:10002000000000000000000000000000952D000806
:10003000E101000800000000692D0008972D00086C
:100040005F0100085F0100085F0100085F01000810
:100050005F0100085F0100085F0100085F01000800
:100060005F0100085F0100085F0100085F010008F0
:100070005F0100085F0100085F0100085F010008E0
:100080005F0100085F0100085F0100085F010008D0
:100090005F0100085F0100085F010008E30100083C
:1000A0005F010008092E00085F0100085F010008D9
:1000B0005F0100085F010008192E00085F010008B9
:1000C0005F0100085F0100085F0100085F01000890
:1000D0005F010008FD3400085F0100080D350008CD
:1000E0005F0100085F0100085F0100085F01000870
:1000F000292E00085F0100085F0100085F01000869
:100100005F0100085F0100085F0100085F0100084F
:100110005F0100085F0100085F0100085F0100083F
:100120005F0100085F0100085F0100085F0100082F
:10013000DFF80CD000F040F80048004759370008BD
:10014000500600200648804706480047FEE7FEE7C5
:10015000FEE7FEE7FEE7FEE7FEE7FEE7FEE7FEE777
:10016000052E000831010008D2B201E000F8012B91
:10017000491EFBD270470022F6E710B513460A4627
:1001800004461946FFF7F0FF204610BD30B50B4678
:10019000014600202022012409E021FA02F59D42B7
:1001A00005D303FA02F5491B04FA02F52844151E8B
:1001B000A2F10102F1DC30BD064C074D06E0E0681B
:1001C00040F0010394E8070098471034AC42F6D39E
:1001D000FFF7B2FFA03F0008C03F000800BFFEE7E6
:1001E000704710B5202000F043F9402000F040F99E
:1001F00010BD72B600BFFEE70146002291F8210053
:10020000022808D00420886300BF002081F8200065
:1002100000BF012070470868006820F00E000B68DE
:1002200018600868006820F001000B68186091F8F9
:10023000403001209840CB6B5860012081F82100AC
:1002400000BF002081F8200000BF1046E2E7000058
:1002500070B50446002594F82100022803D004203C
:10026000A0630125C1E02068006820F00E0021682D
:1002700008602068006820F00100216808605C497F
:100280002068884252D95A4978392068884201D179
:10029000012047E0564964392068884201D1102086
:1002A00040E0534950392068884201D1801539E037
:1002B0004F493C392068884201D1801432E04C49D2
:1002C00028392068884202D14FF480302AE048491A
:1002D00014392068884202D14FF4801022E044494A
:1002E0002068884201D140041CE0424920688842CD
:1002F00001D1012016E03F4914312068884201D124
:1003000010200FE03B4928312068884201D1801538
:1003100008E038493C312068884201D1801401E06E
:100320004FF480303349091F086051E03049783973
:100330002068884201D1012047E02D4964392068B6
:10034000884201D1102040E0294950392068884274
:1003500001D1801539E026493C392068884201D115
:10036000801432E0224928392068884202D14FF4B3
:1003700080302AE01E4914392068884202D14FF4A7
:10038000801022E01A492068884201D140041CE014
:1003900018492068884201D1012016E0154914311E
:1003A0002068884201D110200FE0124928312068CE
:1003B000884201D1801508E00E493C31206888420E
:1003C00001D1801401E04FF4803009498039486040
:1003D000012084F8210000BF002084F8200000BF25
:1003E000606B10B12046616B8847284670BD0000E5
:1003F000800002400804024070B5044600F0F4F9A1
:1004000006462546681C10B104480078054400BF24
:1004100000F0EAF9801BA842FAD370BD3C0000202E
:1004200010B504460D480068012816D1202C12D1C1
:1004300002F03CFC00200949086002F05BFC00204F
:1004400007490860074908702020074908600748E5
:1004500000F018FF00E000BF00BF10BD4400002006
:10046000480000200900002014040140580000202A
:1004700010B5044604480068204020B102480460DA
:100480002046FFF7CDFF10BD140401402DE9F847C9
:10049000024600239C467BE14FF0010808FA03F472
:1004A000D1F8008008EA0400A0427DD1DFF8F4A270
:1004B000D1F80480A8EB0A09D0453AD014DCB8F191
:1004C000030F50D009DCB8F1000F31D0B8F1010FA3
:1004D0001CD0B8F1020F49D120E0B8F1110F18D0AB
:1004E000B8F1120F42D11EE0B9F5881F25D006DC05
:1004F000B9F5803F20D0B9F5801F37D11AE0B9F5A2
:10050000001F18D0B9F5041F30D117E0D1F80CC086
:100510002DE0D1F80C8008F1040C28E0D1F80C8013
:1005200008F1080C23E0D1F80C8008F10C0C1EE057
:1005300000BF00BF00BF00BF00BF00BFD1F80880F0
:10054000B8F1000F02D14FF0040C0BE0D1F8088095
:10055000B8F1010F03D14FF0080C146102E04FF025
:10056000080C546103E04FF0000C00E000BF00BF36
:10057000FF2801D8904601E002F104084646FF2812
:1005800002D84FEA830803E0A3F108084FEA88087D
:100590004746D6F800804FF00F0909FA07F928EA14
:1005A00009080CFA07F900E07AE048EA0908C6F8F9
:1005B0000080D1F8048008F08058B8F1805F6FD1D6
:1005C00000BFDFF8E481D8F8188048F00108DFF8B0
:1005D000D891C9F81880C846D8F8188008F00108E2
:1005E000CDF8008000BF00BF4FEAB9384FEA930949
:1005F00058F829504FEA83784FEA18794FF00F08DE
:1006000008FA09F825EA0805DFF8A081424502D179
:100610004FF0000824E0DFF89881424502D14FF006
:1006200001081DE0DFF88C81424502D14FF002083D
:1006300016E0DFF88481424502D14FF003080FE055
:10064000DFF87881424502D14FF0040808E0DFF876
:100650007081424502D14FF0050801E04FF00608D5
:100660004FEA83794FEA197908FA09F848EA05054B
:10067000DFF850814FEA930948F82950D1F80480F7
:1006800008F48018B8F5801F0BD1DFF83C81D8F84A
:10069000008048EA0008DFF83091C9F800800AE0DD
:1006A00075E0DFF82481D8F8008028EA0008DFF838
:1006B0001891C9F80080D1F8048008F40018B8F542
:1006C000001F0ED1DFF8008108F10408D8F800807F
:1006D00048EA0008DFF8F09009F10409C9F8008041
:1006E0000DE0DFF8E48008F10408D8F8008028EA7B
:1006F0000008DFF8D49009F10409C9F80080D1F8A6
:10070000048008F40038B8F5003F0ED1DFF8B88057
:10071000A8F10408D8F8008048EA0008DFF8A8909B
:10072000A9F10409C9F800800DE0DFF89C80A8F168
:100730000408D8F8008028EA0008DFF88C90A9F1B6
:100740000409C9F80080D1F8048008F48038B8F5AD
:10075000803F0ED1DFF87080A8F10808D8F800803B
:1007600048EA0008DFF86090A9F10809C9F800809C
:100770000DE0DFF85480A8F10808D8F8008028EAD6
:100780000008DFF84490A9F10809C9F800805B1C53
:10079000D1F8008028FA03F8B8F1000F7FF47CAE9E
:1007A000BDE8F88700001110001002400008014069
:1007B000000C0140001001400014014000180140ED
:1007C000001C0140080001400804014002469368F3
:1007D0000B400BB1012000E0002070470AB101611D
:1007E00001E00B0403617047014800687047000096
:1007F000340000200348006803490978084401498F
:1008000008607047340000203C00002010B5084804
:10081000006840F0100006490860032000F0A8F8C6
:100820000F2000F007F800F02BF8002010BD0000AA
:100830000020024070B504460E4800784FF47A71EB
:10084000B1FBF0F00C490968B1FBF0F5284600F067
:10085000F9FB08B1012070BD102C07D200222146FF
:10086000501E00F047F80548046001E00120F2E75F
:100870000020F0E73C00002040000020380000206D
:1008800008B500BF1148806940F001000F49886138
:100890000846806900F00100009000BF00BF00BF63
:1008A0000846C06940F08050C8610846C06900F041
:1008B0008050009000BF00BF00BF0549486820F08D
:1008C000E06040F00070486000BF08BD00100240CA
:1008D0000000014001460846002809DB00F01F0324
:1008E00001229A4043099B0003F1E023C3F8002151
:1008F00000BF70472DE9F05F80460D461646002781
:1009000002F01EFE074639462A46334601F007002C
:10091000C0F1070ABAF1040F02D94FF0040A01E04E
:10092000C0F1070AD14600F1040ABAF1070F02D25A
:100930004FF0000A01E0A0F1030AD4464FF0010A8B
:100940000AFA09FAAAF1010A0AEA020A0AFA0CFAF0
:100950004FF0010B0BFA0CFBABF1010B0BEA030B95
:100960004AEA0B042146404602F0F2FDBDE8F09F42
:1009700000BF00F00702064B19684FF6FF0319404D
:10098000044B0B4343EA0221014B196000BF70473F
:100990000CED00E00000FA0570B504460D460CB9F8
:1009A000012070BD5A48006800F00700A8420ED22E
:1009B0005748006820F0070028435549086008465A
:1009C000006800F00700A84201D00120E9E7207884
:1009D00000F0020002281DD1207800F00400042855
:1009E00005D14C48406840F4E0604A4948602078AE
:1009F00000F00800082805D14648406840F46050DF
:100A0000444948604348406820F0F000A16808432A
:100A100040494860207800F0010078B36068012800
:100A200006D13C48006800F4003090B90120B8E7D6
:100A30006068022806D13748006800F0007040B9AD
:100A40000120AEE73348006800F0020008B9012039
:100A5000A7E73048406820F00300616808432D494B
:100A60004860FFF7C1FE064609E0FFF7BDFE801BA8
:100A700041F28831884202D9032092E707E02548F5
:100A8000406800F00C006168B0EB810FEDD12048A8
:100A9000006800F00700A8420ED91D48006820F049
:100AA000070028431A4908600846006800F007005C
:100AB000A84201D0012074E7207800F00400042847
:100AC00007D11448406820F4E060E1680843114908
:100AD0004860207800F00800082808D10D484068D8
:100AE00020F46050216940EAC1000A49486000F0E2
:100AF0003FF808494968C1F30311074A515CC840EF
:100B00000649086006480068FFF794FE002048E7A1
:100B10000020024000100240863F000840000020F4
:100B200038000020014800687047000040000020A5
:100B300000B5FFF7F7FF04494968C1F30221034AF2
:100B4000515CC84000BD000000100240963F000804
:100B500000B5FFF7E7FF04494968C1F3C221034A22
:100B6000515CC84000BD000000100240963F0008E4
:100B700070B500210022002400230020134D696875
:100B800001F00C05F5B1042D02D0082D19D101E0BA
:100B90000F4819E00F4DC1F38346AB5D01F480357A
:100BA00055B10A4D6D68C5F340450B4E725D084D59
:100BB0005D43B5FBF2F402E0084D03FB05F420466B
:100BC00002E000BF024800BF00BF70BD001002403D
:100BD00000127A00743F0008843F000800093D00BD
:100BE000F8B504460CB90120F8BD207800F00100EA
:100BF000002878D0F848406800F00C0004280CD099
:100C0000F548406800F00C00082811D1F24840680F
:100C100000F48030B0F5803F0AD1EF48006800F45E
:100C2000003000285FD0606800285CD10120DBE73D
:100C300000BF6068B0F5803F06D1E748006840F427
:100C40008030E549086028E0606858B9E2480068EB
:100C500020F48030E04908600846006820F48020D5
:100C600008601AE06068B0F5A02F0BD1DA48006880
:100C700040F48020D84908600846006840F480307D
:100C800008600AE0D448006820F48030D249086047
:100C90000846006820F48020086000BF606888B1C2
:100CA000FFF7A2FD054606E0FFF79EFD401B642806
:100CB00001D9032098E7C848006800F400300028F4
:100CC000F2D010E0FFF790FD054606E0FFF78CFD3F
:100CD000401B642801D9032086E7BF48006800F460
:100CE00000300028F2D1207800F00200022857D10D
:100CF000B948406800F00C0050B1B748406800F0B7
:100D00000C00082818D1B448406800F4803098B925
:100D1000B148006800F0020020B12069012801D02C
:100D2000012061E7AC48006820F0F800616940EA02
:100D3000C100A949086033E02069E8B10120A74952
:100D40000860FFF751FD054606E0FFF74DFD401B2B
:100D5000022801D9032047E79F48006800F00200FD
:100D60000028F2D09C48006820F0F800616940EA51
:100D7000C1009949086013E0002098490860FFF716
:100D800033FD054606E0FFF72FFD401B022801D981
:100D9000032029E79048006800F002000028F2D103
:100DA000207800F0080008282DD1A069B8B10120F2
:100DB0008B490860FFF718FD054606E0FFF714FDB4
:100DC000401B022801D903200EE78348406A00F047
:100DD00002000028F2D0012001F0C8FF13E000203B
:100DE0007F490860FFF700FD054606E0FFF7FCFCC1
:100DF000401B022801D90320F6E67748406A00F03C
:100E000002000028F2D1207800F00400042873D1F9
:100E100000277148C06900F0805070B900BF6E486B
:100E2000C06940F080506C49C8610846C06900F054
:100E30008050009000BF00BF01276A48006800F49E
:100E40008070B0B96748006840F4807065490860F8
:100E5000FFF7CAFC054606E0FFF7C6FC401B642806
:100E600001D90320C0E65F48006800F480700028C4
:100E7000F2D000BFE068012806D15748006A40F070
:100E800001005549086227E0E06858B95248006AF5
:100E900020F00100504908620846006A20F0040072
:100EA000086219E0E06805280BD14B48006A40F061
:100EB0000400494908620846006A40F001000862DF
:100EC0000AE04548006A20F00100434908620846EC
:100ED000006A20F00400086200BFE068A0B1FFF7DC
:100EE00083FC054609E0FFF77FFC401B41F2883197
:100EF000884202D9032077E622E03748006A00F0F2
:100F000002000028EFD012E0FFF76EFC054608E073
:100F1000FFF76AFC401B41F28831884201D9032067
:100F200062E62D48006A00F002000028F0D1012F8F
:100F300005D12948C06920F080502749C86100BF09
:100F4000E069C8B32448406800F00C00082860D06D
:100F5000E069022848D1002020490866FFF744FCD8
:100F6000054606E0FFF740FC401B022801D903209C
:100F70003AE61948006800F000700028F2D1206AB3
:100F8000B0F5803F07D11448406820F40030A168D4
:100F9000084311494860D4E9080108430E494968EB
:100FA00021F4741108430C49486001200B4908667C
:100FB000FFF71AFC054607E03DE0FFF715FC401B74
:100FC000022801D903200FE60348006800F00070F2
:100FD0000028F2D02FE00000001002400000424242
:100FE0008004424200700040002014490866FFF768
:100FF000FBFB054606E0FFF7F7FB401B022801D983
:101000000320F1E50E48006800F000700028F2D1DE
:1010100011E0E069012800D1E6E50948466806F4D8
:101020008031206A814204D106F47011606A8142E5
:1010300001D00120D8E50020D6E5000000004242A2
:101040000010024070B504462546681EB0F1807F4E
:1010500001D301200FE0681E4FF0E02148610F210D
:101060004FF0FF3002F074FA00204FF0E021886169
:1010700007200861002070BD7047704730B50246F8
:101080000B4600BF92F83C00012801D1022030BD80
:10109000012082F83C0000BF022082F83D00106869
:1010A00044681068816824F070041868044310686C
:1010B0004460144D1068A84213D0134D1068A84224
:1010C0000FD01068B0F1804F0BD0104D1068A842BF
:1010D00007D00F4D1068A84203D00E4D1068A842EB
:1010E00005D121F08001586801431068816001201A
:1010F00082F83D0000BF002082F83C0000BF00BF26
:10110000C5E70000002C014000340140000400400D
:1011100000080040000C004010B504460CB9012046
:1011200010BD94F83D0028B9002084F83C0020460A
:1011300000F026F8022084F83D00211D206801F00F
:101140007BFE012084F8460000BF84F83E000121A8
:101150003F200155402001554120015500BF00BFEF
:10116000012084F8420043200155442001554520C8
:10117000015500BF012084F83D000020D0E70000A9
:1011800038B504463A492068884216D100BF39482C
:10119000806940F40060374988610846806900F43E
:1011A0000060009000BF00BF002211461920FFF729
:1011B000A1FB1920FFF78EFB58E02068B0F1804FAB
:1011C0000DD100BF2B48C06940F001002949C8611A
:1011D0000846C06900F00100009000BF46E02649C3
:1011E000206888420DD100BF2248C06940F002004B
:1011F0002049C8610846C06900F00200009000BFA5
:1012000034E01E492068884216D100BF1948C069E1
:1012100040F004001749C8610846C06900F00400A6
:10122000009000BF00BF002203211E20FFF762FBD9
:101230001E20FFF74FFB19E011492068884215D1A5
:1012400000BF0C48806940F400500A498861084694
:10125000806900F40050009000BF00BF00221146DA
:101260002C20FFF747FB2C20FFF734FB38BD000094
:10127000002C014000100240000400400008004023
:1012800000340140014691F83D00012801D00120C1
:101290007047022081F83D000868C06840F00100F6
:1012A0000B68D860164B0868984213D0154B086835
:1012B00098420FD00868B0F1804F0BD0124B0868ED
:1012C000984207D0114B0868984203D0104B086829
:1012D00098420CD10868806800F00702062A0CD0FA
:1012E0000868006840F001000B68186005E00868B5
:1012F000006840F001000B6818600020C8E700009B
:10130000002C01400034014000040040000800406F
:10131000000C004001460868C06820F001000A681F
:10132000D06000BF0868006A41F21112104050B945
:101330000868006A9210104028B90868006820F018
:1013400001000A68106000BF012081F83D00002004
:1013500070472DE9F04104460D46002700BF94F880
:101360003C00012802D10220BDE8F081012084F870
:101370003C0000BF022084F83D002068866826F00B
:10138000770626F47F46206886602868502833D088
:101390000CDC202850D004DC00284BD0102851D180
:1013A00049E0302849D040284CD139E060282DD080
:1013B000702807D0B0F5805F03D0B0F5005F41D151
:1013C0000DE041E0D5E902136A68206801F09BFD59
:1013D0002068866846F077062068866034E0D5E9A4
:1013E00002136A68206801F08EFD2068806840F46E
:1013F00080402168886027E0EA686968206801F019
:1014000073FE5021206801F089FD1DE0EA686968DB
:10141000206801F07CFE6021206801F07FFD13E070
:10142000EA686968206801F05FFE4021206801F0E9
:1014300075FD09E000BF00BF00BF2968206801F00A
:101440006DFD01E0012700BF00BF012084F83D00D1
:1014500000BF002084F83C0000BF384684E7704796
:1014600070B504462068C5682068066906F0020069
:10147000022819D105F00200022815D1401F216869
:101480000861012020772068806900F0030018B10E
:101490002046FFF7E4FF05E0204600F00BF9204668
:1014A00000F0C0F90020207706F00400042819D1CC
:1014B00005F00400042815D1C0432168086102200A
:1014C00020772068806900F4407018B12046FFF74B
:1014D000C6FF05E0204600F0EDF8204600F0A2F936
:1014E0000020207706F00800082819D105F0080030
:1014F000082815D1C043216808610420207720689E
:10150000C06900F0030018B12046FFF7A8FF05E00E
:10151000204600F0CFF8204600F084F90020207724
:1015200006F01000102819D105F01000102815D170
:10153000C04321680861082020772068C06900F452
:10154000407018B12046FFF78AFF05E0204600F002
:10155000B1F8204600F066F90020207706F001007F
:1015600048B105F0010030B16FF001002168086159
:10157000204600F087FB06F08000802809D105F0A6
:101580008000802805D1C043216808612046FFF70C
:1015900073FD06F04000402809D105F040004028C6
:1015A00005D1C04321680861204600F0C1FD06F066
:1015B0002000202809D105F02000202805D1C043B3
:1015C000216808612046FFF758FD70BD10B586B050
:1015D0000446002002900390049005902068B0F12A
:1015E000804F21D100BF2D48806940F008002B4971
:1015F00088610846806900F00800019000BF00BFC4
:101600000820029002200390059002A92448FEF7CA
:101610003DFF00BF2349486820F4407040F0E0607F
:1016200040F48070486036E01F492068884217D136
:1016300000BF1A48806940F00400184988610846D4
:10164000806900F00400019000BF00BFC02002903C
:1016500002200390059002A91448FEF717FF1AE034
:1016600013492068884216D100BF0C48806940F0B9
:1016700008000A4988610846806900F00800019066
:1016800000BF00BF8020029002200390059002A9B5
:101690000348FEF7FBFE06B010BD0000001002403C
:1016A000000C01400000014000040040000801401F
:1016B0000008004070472DE9F04104460D461646EB
:1016C000002700BF94F83C00012802D10220BDE8A9
:1016D000F081012084F83C0000BF36B1042E1BD0FD
:1016E000082E31D00C2E5ED145E02946206801F04D
:1016F0001FFC2068806940F008002168886120682C
:10170000806920F004002168886120688069296967
:1017100008432168886148E02946206801F040FCC0
:101720002068806940F400602168886120688069D1
:1017300020F480602168886120688069296940EA16
:1017400001202168886130E02946206801F066FCAC
:101750002068C06940F008002168C8612068C0693D
:1017600020F004002168C8612068C0692969084325
:101770002168C86119E02946206801F08BFC2068C7
:10178000C06940F400602168C8612068C06920F425
:1017900080602168C8612068C069296940EA012029
:1017A0002168C86101E0012700BF00BF00BF002021
:1017B00084F83C0000BF384689E710B504460CB9F0
:1017C000012010BD94F83D0028B9002084F83C00A9
:1017D000204600F025F8022084F83D00211D2068F5
:1017E00001F02AFB012084F8460000BF84F83E0087
:1017F00001213F200155402001554120015500BFE6
:1018000000BF012084F842004320015544200155C7
:101810004520015500BF012084F83D000020D0E79D
:101820007047000010B504461B49206809688842CB
:1018300030D11A480068012814D119480068401CAA
:10184000174908600846006816490968884209D1A6
:1018500000201349086004210F4800F041F90220DC
:101860000E4908600D480068A0B90D480068401E88
:101870000B490860084600680A490968884209D18E
:101880000421054800F02CF90220044908600020DA
:101890000349086010BD0000300100202400002032
:1018A000200000202800002070B504460D4615B920
:1018B00094F83E000BE0042D02D13F20005D06E0CD
:1018C000082D02D14020005D01E04120005D01288B
:1018D00001D0012070BD1DB9022084F83E000EE049
:1018E000042D03D102213F20015508E0082D03D12A
:1018F00002214020015502E0022141200155012230
:101900002946206801F0EEFA1F492068884203D07A
:101910001E492068884201D1012000E0002028B142
:101920002068406C40F400402168486416492068F3
:10193000884213D01549206888420FD02068B0F142
:10194000804F0BD012492068884207D01149206887
:10195000884203D01049206888420CD120688068F2
:1019600000F00706062E0CD02068006840F0010049
:101970002168086005E02068006840F001002168E7
:1019800008600020A6E70000002C01400034014060
:101990000004004000080040000C0040F0B5044680
:1019A0000D46002615B994F83E000BE0042D02D137
:1019B0003F20005D06E0082D02D14020005D01E0DF
:1019C0004120005D012801D00120F0BD1DB9022099
:1019D00084F83E000EE0042D03D102213F20015582
:1019E00008E0082D03D102214020015502E0022128
:1019F0004120015535B1042D0BD0082D10D00C2DF0
:101A00001CD114E02068C06840F002002168C86062
:101A100016E02068C06840F004002168C8600FE04C
:101A20002068C06840F008002168C86008E02068AD
:101A3000C06840F010002168C86001E0012600BFC6
:101A400000BFD6BB01222946206801F04BFA1F498E
:101A50002068884203D01E492068884201D10120B5
:101A600000E0002028B12068406C40F4004021686C
:101A7000486416492068884213D015492068884276
:101A80000FD02068B0F1804F0BD0124920688842F7
:101A900007D011492068884203D010492068884245
:101AA0000CD12068806800F00707062F0CD0206852
:101AB000006840F001002168086005E020680068C7
:101AC00040F001002168086030467EE7002C0140AC
:101AD000003401400004004000080040000C0040B9
:101AE00030B504460D4600222946206801F0FAF977
:101AF00023492068884203D022492068884201D1C6
:101B0000012000E0002090B100BF2068006A41F28F
:101B10001111084050B92068006A8910084028B99E
:101B20002068406C20F400402168486400BF00BF7A
:101B30002068006A41F21111084050B92068006A1B
:101B40008910084028B92068006820F00100216849
:101B5000086000BF1DB9012084F83E000EE0042D8E
:101B600003D101213F20015508E0082D03D10121B7
:101B70004020015502E0012141200155002030BDE7
:101B8000002C01400034014070B504460D4600268B
:101B900035B1042D0BD0082D10D00C2D1CD114E024
:101BA0002068C06820F002002168C86016E0206844
:101BB000C06820F004002168C8600FE02068C06899
:101BC00020F008002168C86008E02068C06820F0A4
:101BD00010002168C86001E0012600BF00BF002E90
:101BE0004AD100222946206801F07CF92349206867
:101BF000884203D022492068884201D1012000E0B8
:101C0000002090B100BF2068006A41F21111084025
:101C100050B92068006A8910084028B92068406CD3
:101C200020F400402168486400BF00BF2068006ABB
:101C300041F21111084050B92068006A891008402B
:101C400028B92068006820F001002168086000BF02
:101C50001DB9012084F83E000EE0042D03D10121BE
:101C60003F20015508E0082D03D1012140200155F6
:101C700002E0012141200155304670BD002C014099
:101C80000034014010B50446B649206888427DD131
:101C9000B548006838B9B548006820B9B44800882C
:101CA000401CB3490880B048006858B9AF48006884
:101CB000012807D1AF480088401CAE4908800020A9
:101CC000AB490880A8480068012807D1A7480068E8
:101CD00020B90020A7490880A5490880A5480088A8
:101CE00004286DDB01F006F80020A049086000F030
:101CF000E5FF01209C4908609F48007820B1012041
:101D00009E49087001F096FF9B480078002839D161
:101D10009B480078012835D198480078002831D1B7
:101D200098480078401C97490870087800EBD071FB
:101D30004910A0EB410189B101291FD191480178D7
:101D400091A001F0EDFB012195A001F0E9FB9AA023
:101D500001F0E6FB9EA001F0E3FB0FE0894801786B
:101D6000A1A001F0DDFB0121A5A001F0D9FBAAA0F3
:101D700001F0D6FBAEA001F0D3FB00BF00BF0020F6
:101D80007F49087000207D49087000E02EE0794905
:101D90000880AD48FFF7BEFAAC48008801280FD193
:101DA00000F0A8FF00207149086000F07FFF0020CC
:101DB0006D4908600120A64908700020A3490880E9
:101DC0006B480088052811DB00F09CFF0120674963
:101DD000086000F06BFF00206349086064490880D8
:101DE0006548007810B90120654908709949206854
:101DF00088427DD101219848FEF7E8FC40B9974818
:101E000000780B2804DA95480078401C9349087044
:101E100092480078052805DD91A001F081FB0120A2
:101E20009549087001218C48FEF7D0FC012808D1A3
:101E30008A480078002804DD88480078401E8749D9
:101E4000087086480078052805DA8CA001F068FB48
:101E500000208949087004217F48FEF7B7FC40B98B
:101E60008C4800780B2804DA8A480078401C89499D
:101E7000087088480078052802DD87A001F050FB33
:101E800004217548FEF7A2FC012808D1814800789A
:101E9000002804DD7F480078401E7E4908707D4898
:101EA0000078052802DA82A001F03AFB02216A4894
:101EB000FEF78CFC40B9844800780B2804DA82488D
:101EC0000078401C804908707F480078052802DDB2
:101ED0007EA001F025FB02215F48FEF777FC012878
:101EE0000AD179480078002806DD7748007800E0BC
:101EF00036E0401E7449087073480078052802DAFD
:101F000078A001F00DFB4FF400515348FEF75EFC42
:101F100040B97A4800780B2804DA78480078401CE9
:101F20007649087075480078052802DD74A001F034
:101F3000F7FA4FF400514848FEF748FC012808D151
:101F40006E480078002804DD6C480078401E6B491C
:101F500008706A480078052802DA6FA001F0E0FAFC
:101F600010BD0000002C014044000020480000206B
:101F70001C0000201A00002009000020150000208D
:101F8000140000200400002070616765302E743159
:101F9000352E7478743D22256422FFFFFF00000077
:101FA00070616765302E7431372E7478743D222548
:101FB0006422FFFFFF00000070616765302E7431FE
:101FC000382E7478743D224E4F22FFFFFF00000030
:101FD00070616765302E7431362E7478743D22CE70
:101FE000DE22FFFFFF00000070616765302E743154
:101FF000392E7478743D22256422FFFFFF00000013
:1020000070616765302E7432312E7478743D2225EC
:102010006422FFFFFF00000070616765302E74329C
:10202000322E7478743D224E4F22FFFFFF000000D5
:1020300070616765302E7432302E7478743D22CE14
:10204000DE22FFFFFF0000005800002016000020E5
:102050001800002000340140000C01400B0000205B
:1020600070616765302E74362E7478743D22D2D13B
:10207000C2FA22FFFFFF00000E00002070616765BA
:10208000302E74362E7478743D22CEB4C2FA22FFFC
:10209000FFFF00000C00002070616765302E743176
:1020A000302E7478743D22D2D1C2FA22FFFFFF0095
:1020B00070616765302E7431302E7478743D22CE95
:1020C000B4C2FA22FFFFFF000D00002070616765B7
:1020D000302E74382E7478743D22D2D1C2FA22FF89
:1020E000FFFF000070616765302E74382E747874BD
:1020F0003D22CEB4C2FA22FFFFFF00000A000020FA
:1021000070616765302E74342E7478743D22D2D19C
:10211000C2FA22FFFFFF000070616765302E743441
:102120002E7478743D22CEB4C2FA22FFFFFF000065
:1021300070477047704700002DE9F84F044620684B
:1021400005682068C668206847694FF00009CA46DC
:1021500005F00F09B9F1000F0AD105F0200038B1E0
:1021600006F0200020B1204601F035F8BDE8F88FD8
:10217000B9F1000F7BD007F0010018B906F4907098
:10218000002874D005F0010030B106F4807018B159
:10219000606C40F00100606405F0040030B107F0AD
:1021A000010018B1606C40F00200606405F00200AC
:1021B00030B107F0010018B1606C40F004006064B9
:1021C00005F0080048B106F0200010B907F0010042
:1021D00018B1606C40F008006064606C002845D065
:1021E00005F0200028B106F0200010B1204600F0D4
:1021F000F2FF20684069C0F3801A606C00F00800AC
:1022000010B9BAF1000F2CD0204600F09EFF2068D4
:10221000406900F0400000B300BF00BF21681431E6
:1022200051E8001F21F040002168143141E800020C
:10223000002AF3D100BFE06B50B17748E16B4863EF
:10224000E06BFEF705F888B1E06B416B88470DE065
:102250002046FFF76FFF09E009E02046FFF76AFF1D
:1022600004E02046FFF766FF002060647EE7206BF5
:10227000012877D105F01000002873D006F0100077
:102280000028FAD000BF002000902068006800906D
:1022900020684068009000BF00BF2068406900F0DF
:1022A000400000285FD0E06B006840681FFA80F8AB
:1022B000B8F1000F55D0A08D404552DDA4F82E8016
:1022C000E06B8069202843D000BF00BF21680C313B
:1022D00051E8001F21F4807021680C3141E80002B0
:1022E000002AF3D100BF00BF00BF2168143151E8BC
:1022F000001F21F001002168143141E80002002A8A
:10230000F3D100BF00BF00BF2168143151E8001FA6
:1023100021F040002168143141E80002002AF3D185
:1023200000BF202084F842000020206300BF00BFCF
:1023300021680C3151E8001F21F0100021680C3198
:1023400041E80002002AF3D100BFE06BFDF754FF23
:1023500002206063A08DE28D801A81B22046FFF7D3
:10236000E8FE03E742E0A08DE18D401A1FFA80F8F5
:10237000E08DD0B3B8F1000F37D000BF00BF2168A7
:102380000C3151E8001F21F4907021680C3141E8B4
:102390000002002AF3D100BF00BF00BF2168143142
:1023A00051E8001F21F001002168143141E80002CA
:1023B000002AF3D100BF202084F8420000202063CF
:1023C00000BF00BF21680C3151E8001F21F0100050
:1023D00021680C3141E80002002AF3D100BF02203D
:1023E000606341462046FFF7A4FEBFE605F080008B
:1023F00030B106F0800018B1204601F009F8B5E6CA
:1024000005F0400030B106F0400018B1204600F061
:10241000D2FEABE600BFA9E63731000810B504468E
:102420000CB9012010BDA06900B100E000BF94F814
:10243000410028B9002084F84000204600F02AF826
:10244000242084F841002068C06820F400502168EE
:10245000C860204600F03EFF2068006920F49040EC
:10246000216808612068406920F02A0021684861DD
:102470002068C06840F400502168C8600020606493
:10248000202084F8410084F842000020606300BFEF
:10249000C8E7000010B586B0044600200290039003
:1024A000049005903C492068884237D100BF3B48E2
:1024B000806940F48040394988610846806900F4A9
:1024C0008040019000BF00BF00BF0846806940F017
:1024D000040088610846806900F00400019000BF94
:1024E00000BF48150290022003900320059002A926
:1024F0002B48FDF7CBFF4FF4806002900020039043
:10250000049002A92648FDF7C1FF002211462520AC
:10251000FEF7F0F92520FEF7DDF93AE021492068C1
:10252000884236D100BF1D48C06940F480201B4955
:10253000C8610846C06900F48020019000BF00BF58
:1025400000BF0846806940F008008861084680693D
:1025500000F00800019000BF00BF081502900220A3
:1025600003900320059002A90F48FDF78FFF4FF459
:102570000060029000200390049002A90A48FDF731
:1025800085FF002211462720FEF7B4F92720FEF729
:10259000A1F906B010BD0000003801400010024053
:1025A0000008014000480040000C014070B504469E
:1025B0000D46164694F8420020280BD105B10EB9FD
:1025C000012070BD0020206332462946204600F0DD
:1025D000FFFEF6E70220F4E710B504462F49206815
:1025E00088422FD12E48007830B92E4800787F28B5
:1025F00002D101202A49087029480078012813D106
:1026000028480178284802780078401C264B18702A
:102610002648815418460078052805DB0020194615
:10262000087002201E4908701D480078022804D155
:1026300000201D4908701A490870012219491C48D8
:10264000FFF7B4FF1B492068884226D11A4800785A
:10265000012804D100F032FB012018490870164807
:102660000078022804D100F021FB002013490870F3
:1026700011480078032803D11420114909688863A0
:102680000D480078042803D10A200D4909688863A1
:10269000012209490B48FFF789FF10BD00380140AE
:1026A0003200002033000020310000202C000020E8
:1026B000C001002000480040190000204400002014
:1026C000A0000020080200202DE9F84F04460E4625
:1026D000174699464FF0000A94F84100202850D13F
:1026E00006B117B90120BDE8F88F002060642120F1
:1026F00084F84100FEF778F88246A784E784A06852
:10270000B0F5805F04D1206910B90025B04602E021
:1027100035464FF000081EE0534600228021204637
:10272000CDF8009000F0A4FE20B1202084F84100F4
:102730000320D8E745B9B8F80000C0F308002168C5
:10274000486008F1020803E02878216848606D1CA1
:10275000E08C401EE084E08C0028DDD1534600224E
:1027600040212046CDF8009000F082FE20B12020CC
:1027700084F841000320B6E7202084F841000020BF
:10278000B1E70220AFE7704700BFFEE700B585B0B4
:102790000020019002900390049000BF5F48806980
:1027A00040F010005D4988610846806900F0100023
:1027B000009000BF00BF00BF0846806940F02000C5
:1027C00088610846806900F02000009000BF00BFCB
:1027D00000BF0846806940F00400886108468069AF
:1027E00000F00400009000BF00BF00BF08468069F1
:1027F00040F0080088610846806900F008000090F9
:1028000000BF00BF00224FF438414548FDF7E6FF06
:10281000002241F610014348FDF7E0FF0122D103F9
:102820004148FDF7DBFF00224FF418713E48FDF7E9
:10283000D5FF4FF40050019001200290002003903A
:102840000220049001A93648FDF720FE4FF408400D
:10285000019001200290022003900320049001A91E
:102860002F48FDF713FE41F6100001900120029061
:10287000022003900320049001A92A48FDF706FED8
:1028800020200190294802900120039001A92548A9
:10289000FDF7FCFD42F207000190002002900120AC
:1028A000039001A92048FDF7F1FD4FF4004001908D
:1028B0000120029003900320049001A91A48FDF71B
:1028C000E5FD40200190194802900120039001A9E4
:1028D0001348FDF7DBFD4FF480500190012002907A
:1028E00002200390049001A90D48FDF7CFFD4FF49D
:1028F00018700190012002900020039002200490A3
:1029000001A90948FDF7C2FD002201211720FDF7AA
:10291000F1FF1720FDF7DEFF05B000BD00100240FB
:102920000010014000080140000C0140000021108F
:1029300000B587B0002003900490059006900190A8
:10294000029015481549086041F61F404860002173
:102950001248816042F20F71C16000210161416142
:102960008161FEF7D9FB08B1FDF743FC4FF48050BD
:10297000039003A90948FEF7ECFC08B1FDF739FC08
:1029800000200190029001A90448FEF777FB08B1EE
:10299000FDF72FFC07B000BD002C014058000020BF
:1029A00000B58DB0002009900A900B900C90079014
:1029B00008901C216846FDF7DEFB4FF0804020495F
:1029C000086041F61F40486000211D488160C72112
:1029D000C1600021016180218161FEF79DFB08B18A
:1029E000FDF707FC4FF48050099009A91448FEF741
:1029F000B0FC08B1FDF7FDFB1148FEF7DEFE08B1A3
:102A0000FDF7F7FB00200790089007A90C48FEF798
:102A100035FB08B1FDF7EDFB602000900020019030
:102A200002900490042269460548FEF744FE08B16E
:102A3000FDF7DFFB0248FEF7C9FD0DB000BD000049
:102A4000A000002000B58DB0002009900A900B90E6
:102A50000C90079008901C216846FDF78CFB2548D8
:102A600025490860C7204860002123488160632110
:102A7000C160002101618161FEF74EFB08B1FDF7E5
:102A8000B8FB4FF48050099009A91B48FEF761FC80
:102A900008B1FDF7AEFB1848FEF78FFE08B1FDF751
:102AA000A8FB00200790089007A91348FEF7E6FA54
:102AB00008B1FDF79EFB60200090132001900020DC
:102AC00002900490002269460B48FEF7F4FD08B11D
:102AD000FDF78FFB28200190042269460648FEF787
:102AE000EAFD08B1FDF785FB0348FEF76FFD0DB069
:102AF00000BD000000040040E800002000B58DB0DB
:102B0000002009900A900B900C90079008901C21CF
:102B10006846FDF730FB20482049086047204860A0
:102B200000211E4881606321C16000210161802174
:102B30008161FEF7F1FA08B1FDF75BFB4FF48050BD
:102B4000099009A91548FEF704FC08B1FDF751FBEF
:102B50001248FEF732FE08B1FDF74BFB002007904C
:102B6000089007A90D48FEF789FA08B1FDF741FB67
:102B700060200090642001900020029004900422C4
:102B800069460648FEF797FD08B1FDF732FB03489A
:102B9000FEF71CFD0DB000BD000800403001002014
:102BA00000B587B000200390049005900690019036
:102BB000029015481549086041F61F404860002101
:102BC0001248816042F20F71C160002101614161D0
:102BD0008161FEF7A1FA08B1FDF70BFB4FF48050BD
:102BE000039003A90948FEF7B4FB08B1FDF701FB08
:102BF00000200190029001A90448FEF73FFA08B1B5
:102C0000FDF7F7FA07B000BD00340140780100205D
:102C100010B50B480B4908604FF4E13048600021C3
:102C200008488160C16001610C214161002181611E
:102C3000C161FFF7F3FB08B1FDF7DBFA10BD00003F
:102C400000380140C001002010B50B480B49086056
:102C50004FF4E1304860002108488160C1600161A3
:102C60000C21416100218161C161FFF7D7FB08B1EF
:102C7000FDF7BFFA10BD0000004800400802002028
:102C800000BFFEE710B50446012C05D10122010367
:102C90000548FDF7A3FD06E02CB900224FF4805152
:102CA0000148FDF79BFD10BD0008014010B5002153
:102CB0000148FEF769FF10BDE800002010B50021B3
:102CC0000148FEF76BFE10BDE800002010B5044679
:102CD000012C05D1012210210548FDF77FFD05E0FB
:102CE00024B9002210210248FDF778FD10BD000034
:102CF0000008014010B504210148FEF745FF10BD52
:102D0000E800002010B504210148FEF747FE10BD81
:102D1000E800002010B50446012C0AD10022202131
:102D20000A48FDF75BFD012240210848FDF756FDEA
:102D30000AE04CB9012220210448FDF74FFD002292
:102D400040210248FDF74AFD10BD0000000C014083
:102D500010B50122D1030248FDF740FD10BD00006F
:102D60000010014000BFFEE77047000008B50849A9
:102D70000968C9084FF47A72B1FBF2F1414300913E
:102D800000BF00BF00994A1E00920029F9D108BD7A
:102D900040000020704710B5FDF72CFD10BD00B5B8
:102DA0008FB0282105A8FDF7E6F914216846FDF744
:102DB000E2F9012005900004069000200790012010
:102DC000099002200C90C1030D914FF4E0110E9177
:102DD00005A8FDF705FF08B1FDF70BFA0F200090DD
:102DE00002200190002002904FF4806003900020A8
:102DF000049002216846FDF7CFFD08B1FDF7F9F90F
:102E00000FB000BD7047000010B50248FEF728FB68
:102E100010BD00005800002010B50248FEF720FB4E
:102E200010BD00003001002010B50248FEF718FB6D
:102E300010BD00007801002010B50268244B9842B4
:102E40000ED0244B98420BD0B0F1804F08D0224BCB
:102E5000984205D0214B984202D0214B984203D191
:102E600022F070024B681A43194B98420ED0194B4E
:102E700098420BD0B0F1804F08D0174B984205D044
:102E8000164B984202D0164B984203D122F440725E
:102E9000CB681A4322F080034C6943EA04020260C3
:102EA0008B68C3620B688362094B984202D0094B5E
:102EB000984201D10B69036301234361036903F065
:102EC00001031BB1036923F00103036110BD00007E
:102ED000002C014000340140000400400008004084
:102EE000000C004030B501F01F05012404FA05F381
:102EF000046A9C430462046A01F01F0502FA05F5A6
:102F00002C43046230BD30B50C46816821F47F410A
:102F100042EA032525432943816030BD0A46816882
:102F200021F0700142F007031943816070470000EF
:102F300030B5026A056A25F00105056243688469B7
:102F400024F0700424F003040D682C4322F00202E4
:102F50008D682A43104DA84200D103E00F4DA842CE
:102F600006D100BF22F00802CD682A4322F00402F5
:102F7000094DA84202D0094DA84207D123F480731D
:102F800023F400734D692B438D692B4343608461A7
:102F90004D684563026230BD002C014000340140A1
:102FA00030B5026A056A25F0100505624368846938
:102FB00024F4E04424F440740D6844EA052422F02B
:102FC00020028D6842EA0512124DA84200D103E0AA
:102FD000114DA84207D100BF22F08002CD6842EA1D
:102FE000051222F040020B4DA84202D00A4DA84221
:102FF00009D123F4806323F400634D6943EA850318
:103000008D6943EA8503436084614D68856302628C
:1030100030BD0000002C01400034014030B5026A90
:10302000056A25F4807505624368C46924F070045C
:1030300024F003040D682C4322F400728D6842EAE8
:103040000522124DA84200D103E0114DA84207D13C
:1030500000BF22F40062CD6842EA052222F48062B9
:103060000A4DA84202D00A4DA84209D123F4805348
:1030700023F400534D6943EA05138D6943EA0513B0
:103080004360C4614D68C563026230BD002C0140DD
:103090000034014030B5036A056A25F480550562A5
:1030A0004468C26922F4E04222F440720D6842EAA8
:1030B000052223F400538D6843EA0533084DA842E6
:1030C00002D0084DA84204D124F480444D6944EA5A
:1030D00085144460C2614D680564036230BD000020
:1030E000002C01400034014030B50B461446026A02
:1030F000056A25F001050562816921F0F00141EAC8
:10310000041122F00A021A438161026230BD30B517
:103110000B461446026A056A25F0100505628169AE
:1031200021F4704141EA043122F0A00242EA031284
:103130008161026230BD70B505466C6A0020E08591
:10314000E0842046FEF7F6FF70BD00BF00BF0268B6
:103150000C3252E8002F22F4907102680C3242E8DF
:103160000013002BF3D100BF00BF00BF0268143270
:1031700052E8002F22F001010268143242E80013E5
:10318000002BF3D100BF016B01290ED100BF00BF9E
:1031900002680C3252E8002F22F0100102680C3253
:1031A00042E80013002BF3D100BF202180F8421029
:1031B00000210163704710B504462068C06820F004
:1031C00040002168C860202084F841002046FFF7B5
:1031D000DAFA002010BDF8B5044694F8420022281F
:1031E00075D1A068B0F5805F0CD1206950B9002579
:1031F000A66A20684068C0F308003080A06A801C7E
:10320000A06215E0A56A0026A068B0F5805F03D033
:10321000A06828B9206918B920684068287004E0BF
:103220002068406800F07F002870A06A401CA062FF
:10323000E08D401E80B2E085002846D12068C0683D
:1032400020F020002168C8602068C06820F48070E9
:103250002168C8602068406920F001002168486149
:10326000202084F8420000206063206B012826D1D2
:103270000020206300BF00BF21680C3151E8001F0F
:1032800021F0100021680C3141E80002002AF3D13E
:1032900000BF2068006800F0100010280AD100BFAD
:1032A000002000902068006800902068406800902E
:1032B00000BF00BFA18D2046FEF73BFF02E0204685
:1032C000FFF78AF90020F8BD01E00020FBE70220AB
:1032D000F9E7000070B504462168096921F44051FE
:1032E000E2681143226811612269A1681143626991
:1032F00041EA02052168C96841F20C629143294301
:103300002268D1602168496921F44071A2691143A2
:10331000226851612D4A2168914202D1FDF718FCC3
:1033200001E0FDF705FC00EBC00101EB0011626854
:103330009200B1FBF2F100EBC00202EB00126368F5
:103340009B00B2FBF3F26423B2FBF3F202EBC20385
:1033500003EB0212A1EB8201322202EB0111642283
:10336000B1FBF2F101F0F00100EBC00202EB001240
:1033700063689B00B2FBF3F26423B2FBF3F201EB50
:10338000021200EBC00101EB001163689B00B1FB6E
:10339000F3F100EBC00303EB00136668B600B3FB68
:1033A000F6F36426B3FBF6F303EBC30606EB031355
:1033B000A1EB8301322303EB01116423B1FBF3F191
:1033C00001F00F0111442268916070BD0038014086
:1033D00010B5034699629A85DA8500205864222048
:1033E00083F84200186928B11868C06840F48070FA
:1033F0001C68E0601868406940F001001C6860616A
:103400001868C06840F020001C68E060002010BD13
:10341000014691F84100212828D18868B0F5805FE5
:103420000BD1086948B90A6A1088C0F308000B6814
:103430005860086A801C086205E00B6A581C086224
:1034400018780B685860C88C401E80B2C88458B980
:103450000868C06820F080000B68D8600868C06801
:1034600040F040000B68D860002070470220FCE765
:103470002DE9F84304460D4617469846089E31E06C
:10348000701C70B3FDF7B0F9A0EB0800B04200D893
:1034900016B90320BDE8F8832068C06800F0040076
:1034A000F8B1802D1ED0402D1CD020680068C0F3DC
:1034B000C000B0B100BF00200090206800680090FC
:1034C00020684068009000BF00BF2046FFF73DFE27
:1034D0000820606400BF002084F8400000BF012085
:1034E000D8E7FFE7206800682840A84201D1012002
:1034F00000E00020B842C3D00020CBE710B502485E
:10350000FEF71AFE10BD0000C001002010B50248F1
:10351000FEF712FE10BD00000802002000BFFEE70B
:103520000FB4054B10B503A9044A029800F034F813
:1035300010BC5DF814FB0000ED36000854000020BC
:1035400002480068C0F30220704700000CED00E064
:1035500010B5002804DB0A07130E054A135406E0D1
:103560000A07140E034A00F00F031B1FD45410BDAA
:1035700000E400E018ED00E002E008C8121F08C1F6
:10358000002AFAD170477047002001E001C1121FE4
:10359000002AFBD1704700002DE9FF4F89B09B4600
:1035A0000446002506E025280BD05A460B99904783
:1035B000641C6D1C20780028F5D10DB02846BDE8AC
:1035C000F08F0027B8460122474900E0074314F86E
:1035D000013F203B02FA03F00842F7D120782E2861
:1035E00019D114F8010F47F004072A280ED06FF004
:1035F0002F022078A0F1300109290CD808EB8801AE
:1036000002EB410100EB0108641CF2E70A98641C1C
:1036100050F8048B0A9020780028CED0642808D077
:10362000692806D075281ED05A460B9990476D1C04
:1036300058E00A994FF00A0901C90A91002802DAF4
:1036400040422D2102E0390504D52B218DF82010B0
:10365000012103E0F90704D02021F7E78A4608AEEC
:103660000DE00021FAE70A994FF00A0901C90A9111
:10367000F7E74946FCF78AFD303106F8011D0028BE
:10368000F7D1ADEB060000F12009780701D44FF027
:103690000108C84502DDA8EB090000E000208046D3
:1036A000002706E008A85A46C05D0B9990476D1C9C
:1036B0007F1C5745F6DB04E030205A460B999047B3
:1036C0006D1CB8F10001A8F10108F5DC05E016F861
:1036D000010B5A460B9990476D1CB9F10001A9F1F5
:1036E0000109F4DC641C65E70928010013B50C46E8
:1036F0004FF6FF73012269460248FEF7E5FF009886
:103700001CBD00000802002010B504460F480460EC
:103710000024006800280ADD0120FFF7FBFA0120E1
:103720000B49086004210B48FEF738F90DE0074803
:103730000068002809DA0020FFF7ECFA00200449AD
:10374000086004210348FEF729F910BD2800002075
:103750002400002030010020FDF758F8FFF71FFB80
:10376000FFF714F8FFF754FAFFF71AF9FFF76AF9B1
:10377000FFF7C4F9FFF768FAFFF7DAF8FFF710FA76
:103780000122AA49AA48FEF711FF0122A949AA4825
:10379000FEF70CFF0421A948FEF786F80021A8488F
:1037A000FEF7FCF80421A648FEF7F8F80021A5482A
:1037B000FEF7F4F8A448FDF765FDFFF7C9FA01200C
:1037C000FFF760FA0120FFF781FAFFF76FFA002098
:1037D0009E490860FFF78EFA00209D4908600A2084
:1037E0009649096888639BA0FFF79AFE9FA0FFF7A0
:1037F00097FEA4A0FFF794FEA8A0FFF791FEADA04E
:10380000FFF78EFEB1A0FFF78BFEB6A0FFF788FE94
:10381000BAA0FFF785FE0021BEA0FFF781FE0021C0
:10382000C2A0FFF77DFE0021C6A0FFF779FE0021B0
:10383000CAA0FFF775FECFA0FFF772FED3A0FFF777
:103840006FFED8A0FFF76CFEDCA0FFF769FEE1A0D9
:10385000FFF766FEE648FFF757FF40F6B830FCF783
:10386000CBFDE2E0E3480078012827D1FFF742FAD8
:10387000FFF71CFA0F2071490968886340F6B830D9
:10388000FCF7BAFDDA484042FFF73EFF4FF4FA502A
:10389000FCF7B2FDD848FFF737FF4FF4FA50FCF7BA
:1038A000ABFDFFF727FA002069490860FFF706FA29
:1038B0000120664908600020CE490870CF48C078D2
:1038C0000A2878D2DFE800F0AF054E2878AFAFAF16
:1038D000AF9E0120CA4908701920584909688863B9
:1038E0004FF47A70FCF788FD0120FFF7EFF9FFF73E
:1038F00009FA012056490860FFF7D8F9002053491A
:1039000008604FF47A70FCF777FDBE48FDF7BAFC0B
:103910000020BA49C87087E00320B9490870012027
:10392000B94908700F204549096888634FF47A70D7
:10393000FCF762FD0120FFF7C9F9FFF7E3F9012069
:1039400043490860FFF7B2F90020404908604FF48E
:103950007A70FCF751FDAB48FDF794FC0020A749B5
:10396000C87061E00220A64908700120A7490870CC
:1039700014203249096888634FF47A70FCF73CFDE3
:103980000120FFF7A3F9FFF7BDF9012030490860D6
:10399000FFF78CF900202D4908604FF47A70FCF78E
:1039A0002BFD01209A4908809648FDF76BFC00200A
:1039B0009249C87038E036E004209149087001202F
:1039C000944908700A201D49096888634FF47A7089
:1039D000FCF712FD0120FFF779F9FFF793F90120B9
:1039E0001B490860FFF762F90020184908604FF48E
:1039F0007A70FCF701FD8348FDF744FC00207F4905
:103A0000C87011E0FFF776F9002011490860FFF750
:103A100055F901200D4908607FA0FFF781FD0020C6
:103A20007649C87000E000BF00BF1BE71900002006
:103A30000802002033000020C0010020A000002068
:103A4000E800002030010020780100204400002020
:103A50004800002070616765302E7431352E74780F
:103A6000743D22CEDE22FFFFFF000000706167651B
:103A7000302E7431362E7478743D22CEDE22FFFF54
:103A8000FF00000070616765302E7431372E747846
:103A9000743D22CEDE22FFFFFF00000070616765EB
:103AA000302E7431382E7478743D22CEDE22FFFF22
:103AB000FF00000070616765302E7431392E747814
:103AC000743D22CEDE22FFFFFF00000070616765BB
:103AD000302E7432302E7478743D22CEDE22FFFFF9
:103AE000FF00000070616765302E7432312E7478EB
:103AF000743D22CEDE22FFFFFF000000706167658B
:103B0000302E7432322E7478743D22CEDE22FFFFC6
:103B1000FF00000070616765302E74392E74787470
:103B20003D22256422FFFFFF0000000070616765F1
:103B3000302E74352E7478743D22256422FFFFFFE9
:103B40000000000070616765302E74372E74787441
:103B50003D22256422FFFFFF0000000070616765C1
:103B6000302E74332E7478743D22256422FFFFFFBB
:103B70000000000070616765302E74342E74787414
:103B80003D22CEB4C2FA22FFFFFF000070616765DC
:103B9000302E74362E7478743D22CEB4C2FA22FFD1
:103BA000FFFF000070616765302E74382E747874E2
:103BB0003D22CEB4C2FA22FFFFFF000070616765AC
:103BC000302E7431302E7478743D22CEB4C2FA2275
:103BD000FFFFFF0070616765302E7432332E7478FA
:103BE000743D22CEB4C6F4B6AF22FFFFFF00000042
:103BF00020DDFDFF18000020008FFDFF2C000020BD
:103C000009000020580000200700002008000020C4
:103C1000160000200500002070616765302E7432A8
:103C2000332E7478743D22D2D1C6F4B6AF22FFFF92
:103C3000FF00000010B553480078401C514908703F
:103C4000087800EBD0714910A0EB410100292AD07F
:103C5000012951D14B4801784BA0FFF761FC0121AC
:103C60004FA0FFF75DFC54A0FFF75AFC58480078BE
:103C7000012806D002280CD0032806D0042810D131
:103C80000BE054A0FFF74CFC0BE059A0FFF748FCF9
:103C900007E05EA0FFF744FC03E064A0FFF740FCF0
:103CA00000BF00BF28E03748017867A0FFF738FC65
:103CB00001216BA0FFF734FC6FA0FFF731FC4448F3
:103CC0000078012806D002280CD0032806D004284A
:103CD00010D10BE06EA0FFF723FC0BE073A0FFF701
:103CE0001FFC07E078A0FFF71BFC03E07EA0FFF7B6
:103CF00017FC00BF00BF00BF00BF35480078012897
:103D000006D0022812D003281ED0042838D129E07A
:103D10007C480078401C7B490870084601787AA0EE
:103D2000FFF7FEFB00202A49087029E07C48007854
:103D3000401C7B490870084601787AA0FFF7F0FB29
:103D40000020234908701BE07C480078401C7B4918
:103D50000870084601787AA0FFF7E2FB00201C49B2
:103D600008700DE07C480078401C7B4908700846CC
:103D700001787AA0FFF7D4FB00201549087000BF36
:103D800000BF10BD0400002070616765302E7431E3
:103D9000352E7478743D22256422FFFFFF00000059
:103DA00070616765302E7431372E7478743D22252A
:103DB0006422FFFFFF00000070616765302E7431E0
:103DC000382E7478743D2259455322FFFFFF0000BE
:103DD0000900002070616765302E7431362E7478CA
:103DE000743D22B3F8D3E0C0ACBBF822FFFFFF0064
:103DF00070616765302E7431362E7478743D22C63A
:103E0000E4CBFBC0ACBBF822FFFFFF00706167652D
:103E1000302E7431362E7478743D22BFC9BBD8CA97
:103E2000D5C0ACBBF822FFFFFF00000070616765E2
:103E3000302E7431362E7478743D22D3D0BAA6C099
:103E4000ACBBF822FFFFFF0070616765302E743154
:103E5000392E7478743D22256422FFFFFF00000094
:103E600070616765302E7432312E7478743D22256E
:103E70006422FFFFFF00000070616765302E74321E
:103E8000322E7478743D2259455322FFFFFF000003
:103E900070616765302E7432302E7478743D22B3B1
:103EA000F8D3E0C0ACBBF822FFFFFF00706167658C
:103EB000302E7432302E7478743D22C6E4CBFBC0B1
:103EC000ACBBF822FFFFFF0070616765302E7432D3
:103ED000302E7478743D22BFC9BBD8CAD5C0ACBBE4
:103EE000F822FFFFFF00000070616765302E74321A
:103EF000302E7478743D22D3D0BAA6C0ACBBF82261
:103F0000FFFFFF000200002070616765302E7439EA
:103F10002E7478743D22256422FFFFFF000000000C
:103F20000100002070616765302E74352E7478743E
:103F30003D22256422FFFFFF000000000300002057
:103F400070616765302E74372E7478743D22256455
:103F500022FFFFFF00000000000000207061676585
:103F6000302E74332E7478743D22256422FFFFFFB7
:103F70000000000002030405060708090A0B0C0DE7
:103F80000E0F1010010200000000000000000102EE
:103F900003040607080900000000010203040000F2
:103FA000C03F0008000000205800000078350008DD
:103FB0001840000858000020F80500008835000867
:103FC00000000000000000000000000000000000F1
:103FD00001000000000000000000000000000000E0
:103FE00000000000020000000000000000000000CF
:103FF00000000000000000001000000001000000B0
:1040000000127A000000000000000000050000001F
:084010000100000000000000A7
:0400000508000131BD
:00000001FF
